:100000000C9469060C9491060C9491060C9491063C
:100010000C9491060C9491060C9491060C94910604
:100020000C9491060C9491060C94F32F0C94BF2E13
:100030000C9491060C9491060C9491060C949106E4
:100040000C9491060C94770C0C9491060C949106E8
:100050000C9491060C9491060C9491060C945C2AD5
:100060000C9491060C9491060C9491060C949106B4
:100070000C9491060C9491060C9491060C949106A4
:100080000C94650D0C9491060C9491060C949106B9
:100090000C9491060C9491060C9491060C94910684
:1000A0000C9491060C9491060C9491066B2B6E2B7C
:1000B0005D2B612B672B8F2B8F2B8F2B722B762B2E
:1000C0007A2B802B842B8F2B8A2B00000000003E84
:1000D0005B4F5B3E3E6B4F6B3E1C3E7C3E1C183CB8
:1000E0007E3C181C577D571C1C5E7F5E1C00183C14
:1000F0001800FFE7C3E7FF0018241800FFE7DBE75D
:10010000FF30483A060E2629792926407F05050743
:10011000407F05253F5A3CE73C5A7F3E1C1C08089F
:100120001C1C3E7F14227F22145F5F005F5F060964
:100130007F017F006689956A606060606094A2FFBD
:10014000A29408047E040810207E201008082A1CAF
:1001500008081C2A08081E101010100C1E0C1E0C7B
:1001600030383E3830060E3E0E060000000000001B
:10017000005F00000007000700147F147F14242A8A
:100180007F2A12231308646236495620500008075C
:100190000300001C2241000041221C002A1C7F1C7D
:1001A0002A08083E0808008070300008080808087F
:1001B000000060600020100804023E5149453E00E6
:1001C000427F400072494949462141494D33181444
:1001D000127F1027454545393C4A49493141211193
:1001E00009073649494936464949291E0000140085
:1001F00000004034000000081422411414141414A8
:10020000004122140802015909063E415D594E7C05
:100210001211127C7F494949363E414141227F41BA
:1002200041413E7F494949417F090909013E414118
:1002300051737F0808087F00417F41002040413F03
:10024000017F081422417F404040407F021C027F12
:100250007F0408107F3E4141413E7F090909063E67
:100260004151215E7F091929462649494932030136
:100270007F01033F4040403F1F2040201F3F403848
:10028000403F631408146303047804036159494D23
:1002900043007F4141410204081020004141417F59
:1002A00004020102044040404040000307080020CF
:1002B000545478407F2844443838444444283844CF
:1002C00044287F385454541800087E090218A4A406
:1002D0009C787F0804047800447D40002040403D25
:1002E000007F1028440000417F40007C047804789F
:1002F0007C080404783844444438FC182424181832
:10030000242418FC7C08040408485454542404048D
:100310003F44243C4040207C1C2040201C3C40307A
:10032000403C44281028444C9090907C4464544CA9
:100330004400083641000000770000004136080004
:1003400002010204023C2623263C1EA1A161123AAE
:100350004040207A385454555921555579412154FB
:10036000547841215554784020545579400C1E5200
:1003700072123955555559395454545939555454A4
:10038000580000457C410002457D420001457C400B
:10039000F0292429F0F0282528F07C545545002028
:1003A00054547C547C0A097F4932494949323248C5
:1003B000484832324A4848303A4141217A3A42402C
:1003C0002078009DA0A07D39444444393D40404000
:1003D0003D3C24FF2424487E4943662B2FFC2F2BD1
:1003E000FF0929F620C0887E090320545479410072
:1003F00000447D413048484A32384040227A007AF1
:100400000A0A727D0D19317D2629292F28262929CE
:10041000292630484D4020380808080808080808F0
:10042000382F10C8ACBA2F102834FA00007B000017
:1004300008142A142222142A14089500220095AACE
:10044000005500AAAA55AA55AA000000FF001010E6
:1004500010FF00141414FF001010FF00FF1010F024
:1004600010F0141414FC001414F700FF0000FF0037
:10047000FF1414F404FC141417101F10101F101F85
:100480001414141F00101010F0000000001F1010B2
:1004900010101F10101010F010000000FF101010AE
:1004A000101010101010FF10000000FF140000FFCB
:1004B00000FF00001F10170000FC04F414141710B4
:1004C000171414F404F40000FF00F71414141414A7
:1004D0001414F700F7141414171410101F101F141D
:1004E0001414F4141010F010F000001F101F00007E
:1004F000001F14000000FC140000F010F01010FFAA
:1005000010FF141414FF141010101F00000000F04E
:1005100010FFFFFFFFFFF0F0F0F0F0FFFFFF000023
:10052000000000FFFF0F0F0F0F0F38444438447CCA
:100530002A2A3E147E02020606027E027E026355CD
:100540004941633844443C04407E201E2006027E1C
:10055000020299A5E7A5991C2A492A1C4C7201722E
:100560004C304A4D4D303048784830BC625A463D98
:100570003E494949007E0101017E2A2A2A2A2A444D
:10058000445F444440514A444040444A5140000082
:10059000FF0103E080FF000008086B6B083612368D
:1005A0002436060F090F060000181800000010106E
:1005B000003040FF0101001F01011E00191D17122C
:1005C000003C3C3C3C0000000000AED5F0A83FD30E
:1005D00000408D142000A1C8DA1281CFD9F1DB4090
:1005E000A4A6AF200021007F22000700060D1319EA
:1005F0001F252C32383E444A50565C62676D737832
:100600007E83888E93989DA2A7ABB0B4B9BDC1C5B7
:10061000C9CDD0D4D7DBDEE1E4E7E9ECEEF0F2F4CB
:10062000F6F7F9FAFBFCFDFEFEFFFF3EC0A3170242
:100630007F2044885C4391B91714BE13A83400C8C6
:100640000B480880BE0BB85714438BA9341C7F0598
:100650004808007F18A497403EE08302107C800782
:100660000F02EE42E8085CEEA249B7146C1378144E
:100670008090138808006C0B68170AEE8E59540E90
:10068000EE12982840FE62480F017C80270510007A
:10069000000000000000000000000000000000005A
:1006A000000000000000000000000000000000004A
:1006B000000000000000000000000000000000003A
:1006C000000000000000000000000000000000002A
:1009400000000000000000000000000000FCFE1C91
:100950003870E0C080000080E06C0CC0C4CAD1CA0E
:10096000C4C08030373FF8F0303080E07030181865
:1009700018183070E084100208C0F0F0C0F0FCFCE1
:1009800000E0F0381C0C80C0E0800000003F7F38A1
:100990001C0E070301181E0701183C7CECCCCCC0D0
:1009A000C0FFFF001060618F0E00071F38306465C4
:1009B000626531381F07303C0F030F0F030003330C
:1009C000303133373E3C18000101000000C0F0FD1B
:1009D0003F0F2321F1F1D90F0EC6F0FD3F2F232148
:1009E000F1D1D90F0E06C0F0FD3F0F03F1FAFC0E56
:1009F000060301018187860608C0F0FD3F2F2322F0
:100A0000F4D0D80E0F070182846810060B1323223E
:100A100022222223212120160B1323222428308175
:100A2000C3E3B2980A83C3637258F80098F963333A
:100A30009ACAE2B3B92988CA6B735BCAA838100195
:100A40000B13222429332D00000000FFFF63636392
:100A5000B67E5C40787EC68383C3467E78407FFF47
:100A6000E3636336BE9C404040808000C04040400D
:100A7000404080800000F8FC0E027CFEFFFFFF0774
:100A800006FCF00008040207186080010100000065
:100A9000FF00003E22229C8041FF0000CE4A8A04D3
:100AA00020519EE3809C2222229C8063FF0000CE86
:100AB0004A4A2420110E0107060E0E153B3B37371C
:100AC000371B4D80878080404E201F0000000200B1
:100AD000090F0000030401000C00000000000000EA
:100AE0000000000000000000000408020110408027
:100AF0004010204080408008020401804020100205
:100B00000110801020404004040404040304050282
:100B10000202020403020202020606060606060498
:100B2000040202020400000000250028002B002E11
:100B300000310000000000240027002A002D0030B2
:100B40000000C18081C11201000202000040412367
:100B50003680000101020001120100020000004085
:100B60004123368000010102000141726475696E03
:100B70006F204C4C430041726475696E6F204C6568
:100B80006F6E6172646F0004030904080B000202B7
:100B90000201000904000001020200000524001007
:100BA00001052401010104240206052406000107B1
:100BB00005810310004009040100020A000000073B
:100BC000050202400000070583024000000000000B
:100BD00000000000002A2B28000000000000000098
:100BE000000000000000000000000000002C9EB487
:100BF000A0A1A2A434A6A7A5AE362D3738271E1F64
:100C000020212223242526B333B62EB7B89F84850E
:100C1000868788898A8B8C8D8E8F909192939495FC
:100C2000969798999A9B9C9D2F3130A3AD350405DA
:100C3000060708090A0B0C0D0E0F101112131415DC
:100C4000161718191A1B1C1DAFB1B0B50009040204
:100C500000010300000009210101000122650007D5
:100C600005840340000105010902A1010901A10059
:100C70008501050919012903150025019503750151
:100C80008102950175058103050109300931093893
:100C90001581257F750895038106C0C005010906E9
:100CA000A1018502050719E029E715002501750155
:100CB0009508810295017508810395067508150050
:100CC00025650507190029658100C000FD296F31E0
:100CD000C23211241FBECFEFDAE0DEBFCDBF12E07B
:100CE000A0E0B1E0E8E4FEE602C005900D92A03A73
:100CF000B107D9F727E0A0EAB2E001C01D92A23AFD
:100D0000B207E1F71CE0C2EDDCE004C02297FE016F
:100D10000E945D35CC3CD107C9F70E94002C0C9491
:100D200022370C940000CF93DF93EC018EE792E022
:100D3000998388831B821A82CE0104960E94840DB7
:100D400089E591E0998388838CE3898B1B8A1A8AD1
:100D500080E18C8B1D8A1E8A1F8A188E198E1A8E2E
:100D60001B8E1C8E1D8E1E8EFE01E15EFB4F1182BE
:100D70001082329611821082CD5DDB4F81E0888334
:100D8000DF91CF910895CF93DF93EC0104960E94F9
:100D9000060ECE014096DF91CF910C94900BFC0192
:100DA000618B70E088EE93E00E940635648B0895B5
:100DB0000F931F93CF93DF93EC010E94A62AE62F97
:100DC000462F572FBC018D8D882351F08D899E2F82
:100DD000981B9E8F8A899B8901969B8B8A8B1D8E7F
:100DE000098D1A8D2B8D3C8D4017510762077307B3
:100DF00044F40E1B0230B8F0CE0104960E94B00DF0
:100E000012C08C898A019B01080F111D211D311D03
:100E1000098F1A8F2B8F3C8F4D8B5E8B6F8B788F4A
:100E200081E08D8F01C080E0DF91CF911F910F9104
:100E3000089560937C0080E280937B0062E070E024
:100E400080E090E00E94D52A80917A0080648093AF
:100E50007A0080917A0086FDFCCF80917800909195
:100E600079000895CF92DF92EF92FF92CF93DF93B4
:100E70007C01C4E6D0E088818E7F888367ECC7015F
:100E80000E9419076C016EE5C7010E9419077C01D9
:100E90000E94B22A9B01AC01E094F094C094D094DB
:100EA000EC9CD001ED9CB00DFC9CB00D1124209564
:100EB0003095409550950E9461356B017C010E94F0
:100EC000B22A6C0D7D1D8E1D9F1D0E94673088818A
:100ED00081608883DF91CF91FF90EF90DF90CF907A
:100EE00008954F96FC0100241192119211921192D3
:100EF0000394D1F708956038710518F54034510511
:100F000000F5E42FE695E695E695F0E04770552765
:100F1000F695FE2FEE27F795E795E60FF71FE80FFA
:100F2000F91F81E090E0042E01C0880F0A94EAF7CF
:100F3000222319F0978D982B03C08095978D9823C5
:100F4000978F08952F923F924F925F926F927F9268
:100F50008F929F92AF92BF92CF92DF92EF92FF92C9
:100F60000F931F93CF93DF932C01EB016A0159017B
:100F70009801241B350B37FF03C0319521953109AA
:100F8000C5018C1B9D0B97FF03C09195819591091D
:100F9000FF24F3948217930714F0F12C0AC09A2DC2
:100FA0008B2D5801092F182F9C2F8D2FE601C92E4C
:100FB000D82EAC16BD0654F49C2D8D2D6801092F3A
:100FC000182F9C2F8D2FE501A92EB82E15012C1A54
:100FD0003D0A38016C187D0877FE03C07194619456
:100FE0007108410137FE03C08FEF881A980A959463
:100FF0008794C016D10614F401E001C00FEF112749
:1010000007FD1095AC16BD06ACF02E2DFF2019F093
:10101000AE01B60102C0A601BE01C2010E947B075B
:101020008618970897FE04C0C00ED11E820C931C30
:101030002196E8CFDF91CF911F910F91FF90EF9014
:10104000DF90CF90BF90AF909F908F907F906F90E8
:101050005F904F903F902F900895AF92BF92CF92A4
:10106000DF92EF92FF920F93CF93DF936C015B01BE
:101070007901E40EF51EEA0157FF0DC0C0E0D0E093
:101080000AC0C817D9077CF4202FAE01B501C601EC
:101090000E947B072196C70121E4E216F1048CF33C
:1010A00080E490E0EECFDF91CF910F91FF90EF9031
:1010B000DF90CF90BF90AF900895AF92BF92CF9244
:1010C000DF92EF92FF920F93CF93DF936C015A015F
:1010D0007901E60EF71EEB0177FF0DC0C0E0D0E00E
:1010E0000AC0C817D9077CF4202FA501BE01C6018C
:1010F0000E947B072196C70121E8E216F1048CF3D8
:1011000080E890E0EECFDF91CF910F91FF90EF90CC
:10111000DF90CF90BF90AF9008956F927F928F92A3
:101120009F92AF92BF92CF92DF92EF920F931F9355
:10113000CF93DF93EC015B016A01490138010E2D69
:101140000E945D08A601460D571D415051099401AA
:10115000B501CE010E945D089301A601B501CE0143
:101160000E942D08B501680D791D61507109930128
:10117000A601CE010E942D08DF91CF911F910F9102
:10118000EF90DF90CF90BF90AF909F908F907F9027
:101190006F9008956F927F928F929F92AF92BF92BD
:1011A000CF92DF92EF920F931F93CF93DF935C0167
:1011B0004A0169013801EB01C60ED71ECC15DD05C9
:1011C0004CF40E2D9301A401BE01C5010E942D080F
:1011D0002196F4CFDF91CF911F910F91EF90DF9087
:1011E000CF90BF90AF909F908F907F906F90089519
:1011F0002F923F924F925F926F927F928F929F9227
:10120000AF92BF92CF92DF92EF92FF920F931F9314
:10121000CF93DF93CDB7DEB762970FB6F894DEBFFA
:101220000FBECDBF1C013B012A013A8B298B48011F
:10123000B7011A2D841695064CF4852D2401842EB1
:10124000982E962D872D3901998B8A8BC814D90435
:101250005CF4982D892D4601C92ED82E99898A894A
:101260007A8B698B692F782F841495045CF4942D04
:10127000852D2401892E982E962D872D69887A88B0
:10128000998B8A8B4C145D0409F529893A892615B6
:10129000370534F099898A897A8A698A692E782E85
:1012A00049895A896417750734F0661677060CF475
:1012B0003B0169897A899301261B370B2F5F3F4FCA
:1012C000012FA201C1010E945D08ADC089899A89E0
:1012D000861997099C878B87F401E419F509FE8725
:1012E000ED875B01A618B7089601241935093887E0
:1012F0002F83AB0189899A89481B590B5A874987E3
:10130000F601E819F909F88BEF878C149D0431F088
:101310009401215031093E832D8302C09E828D822B
:1013200072011C821B821A8219822D813E812E1528
:101330003F05A4F189819A816D857E850E940635DD
:101340009B01260D371D8B819C816F8178850E94C2
:101350000635660D771D49815A818B859C85480F1E
:10136000591F5A834983EB81FC81EA0DFB1DFC83E5
:10137000EB83621773072CF0962F872FB901292F63
:10138000382F261B370B2F5F3F4F012FA701C101BD
:101390000E945D08FFEFEF1AFF0AC7CFC701881947
:1013A000990949855A85489F4001499F900C589F4B
:1013B000900C1124C70184199509A89E2001A99EAB
:1013C000500CB89E500C1124CE14DF0464F1C401FB
:1013D0006F8578890E9406359B0189899A89280F33
:1013E000391FC2016F8178850E940635660D771D11
:1013F000E985FA858E0E9F1E4A0C5B1C62177307E7
:101400002CF0962F872FB901292F382F261B370B49
:101410002F5F3F4F012FA701C1010E945D08FFEF21
:10142000EF1AFF0AD1CF62960FB6F894DEBF0FBE57
:10143000CDBFDF91CF911F910F91FF90EF90DF9083
:10144000CF90BF90AF909F908F907F906F905F9064
:101450004F903F902F9008952F923F924F925F921E
:101460006F927F928F929F92AF92BF92CF92DF92B4
:10147000EF92FF920F931F93CF93DF93CDB7DEB719
:1014800029970FB6F894DEBF0FBECDBF5C015D8318
:101490004C83F02EEF82603871050CF075C040343B
:1014A00051050CF071C04C2D50E059874887CB0195
:1014B00055E0C59E800D911D1124181619060CF0DB
:1014C00063C08885998533E0880F991F3A95E1F7C5
:1014D000AC81BD818A0F9B1F181619060CF054C0F1
:1014E00035E0239FF00111241B012B011B82E653E1
:1014F000FF4FE61BF70BFA83E9834B81453031F050
:10150000E981FA81E20DF31DD49001C0D12C6C80E9
:101510007D8043011E82D0FE07C051E0C51202C08B
:101520002F2D09C0EF2C0EC08F818F1599F091E0FF
:10153000C91207C0282FA401B101C5010E947B0771
:1015400009C0EF80088519859801A301B201C50182
:101550000E94CA08D694AE81AF5FAE83E885F98554
:101560006E0E7F1EFFEF8F1A9F0AA830A1F63B81F7
:101570003F5F3B8348855985440E551E5FEF251A12
:10158000350A363009F0B9CF29960FB6F894DEBF88
:101590000FBECDBFDF91CF911F910F91FF90EF90C4
:1015A000DF90CF90BF90AF909F908F907F906F9083
:1015B0005F904F903F902F9008956F927F928F92FF
:1015C0009F92AF92BF92CF92EF920F93CF93DF9300
:1015D000EC01262F6A3099F4FC01ED5DFB4F208170
:1015E00032978081918138E0239F800D911D1124D5
:1015F00091838083C15EDB4F198218824DC06D30AC
:1016000009F44AC03C015DED651A5BEF750A4C01B7
:101610008FED881A8BEF980AF401408151815E01A9
:10162000F1EEAF1AFBEFBF0AF50160817181F301A2
:10163000C080E12C01E0CE010E942C0AF301408120
:10164000242F30E0F50180819181F6E04F9F800DDD
:10165000911D1124F50191838083CC5DDB4F48817E
:101660004423D1F06AEF6203A001639F500D11245F
:1016700040585F4F481759077CF443E0220F331F4F
:101680004A95E1F7F40180819181820F931F918344
:101690008083F50111821082DF91CF910F91EF903D
:1016A000CF90BF90AF909F908F907F906F90089554
:1016B000FC01E15EFB4F718360833296518340836E
:1016C0000895BC01615E7F4F04960C94CF0D4F9638
:1016D0000895CF93DF931F92CDB7DEB70496698349
:1016E0000E94EA0D6981982F962381E0961380E08D
:1016F0000F90DF91CF9108951092AA021092A90243
:1017000021E0FC0120830895FC0180810895FC0103
:1017100010820895FC01608182E090E00C940C3707
:10172000CF93DF93EC0161E084E10E94902B109253
:1017300080001092810080918100886080938100F8
:1017400080918100816080938100EBE1FBE0E49176
:10175000F0E0EE0FFF1FEB5DF44F859194919093B5
:10176000B1028093B002EDEFFAE0E491E093AF02B2
:1017700080918100887F81608093810081E49FE077
:10178000909389008093880080916F00826080939D
:101790006F0082E090E00E940437882331F01092BD
:1017A000AA021092A90281E08883DF91CF91089567
:1017B000FB01DC018C91882309F498C01092AA02E5
:1017C0001092A9021092AE021092AD021092AB02DA
:1017D00066817781862F880F880F880F88578093BE
:1017E000AC0284858093A0028091A002882309F432
:1017F00043C0813009F05FC04081518180E290E0B8
:10180000841B950B9093A8028093A702A091A70236
:10181000B091A80227E030E0261B370B249FC001BF
:10182000259F900D349F900D112463E09695879528
:101830006A95E1F78A0F9B1F9093AC028093AB02ED
:101840008091A7029091A80276E0880F991F7A955F
:10185000E1F79093A8028093A702828193819195EA
:10186000819591099093A4028093A302848195812C
:101870009195819591091BC0808191819093A802D7
:101880008093A7028091A7029091A802A6E0880FFA
:10189000991FAA95E1F79093A8028093A7028281ED
:1018A00093819093A4028093A30284819581909365
:1018B000A2028093A1022091A7023091A802808504
:1018C0009185880F991F880F991F820F931F9093FE
:1018D000A6028093A5028285938555E0880F991F03
:1018E0005A95E1F79093AA028093A90208951F9256
:1018F0000F920FB60F9211242F933F938F939F93C4
:10190000EF93FF938091A9029091AA02892B09F489
:10191000C3C08091A90281110EC02091A102309113
:10192000A2028091A3029091A402820F931F909330
:10193000A4028093A3028091A3029091A40220911B
:10194000A7023091A802820F931F9093A802809360
:10195000A7028091A3029091A4022091A502309148
:10196000A602820F931F9093A6028093A5028091F6
:10197000A002882319F08130C9F184C02091A70208
:101980003091A8028091AD029091AE02820F931F18
:101990009093AE028093AD028091AE0287FF0EC09D
:1019A0008091AE028F778093AE029091AF02E0916A
:1019B000B002F091B1028081892780832091A50235
:1019C0003091A6028091AB029091AC02820F931FDE
:1019D0009093AC028093AB028091AC0287FF52C01F
:1019E0008091AC028F778093AC0243C08091AD02AE
:1019F0009091AE0201969093AE028093AD02209139
:101A0000AD023091AE028091A7029091A802F5E05C
:101A100096958795FA95E1F78217930768F41092E7
:101A2000AE021092AD029091AF02E091B002F0913F
:101A3000B1028081892780838091AB029091AC02B2
:101A400001969093AC028093AB022091AB0230914F
:101A5000AC028091A5029091A602E5E0969587954B
:101A6000EA95E1F78217930768F41092AC0210929E
:101A7000AB029091AF02E091B002F091B10280818F
:101A8000892780838091A9029091AA02019790935F
:101A9000AA028093A9020EC02091AF02E091B00289
:101AA000F091B102808190E030E020953095822362
:101AB00093238083FF91EF919F918F913F912F917D
:101AC0000F900FBE0F901F9018951F920F920FB698
:101AD0000F9211240F900FBE0F901F9018958EBD7E
:101AE00000000DB407FEFDCF8EB508952CB5982FDC
:101AF00093702C7F922B9CBD9DB582FB882780F92B
:101B00009E7F982B9DBD08950895FC01A681B78105
:101B10008C919385892B8C93A481B5819C9182852E
:101B2000809589238C930895FC01A481B5818C91C3
:101B30009285892B8C93A481B5818C919285892B78
:101B40008C93A681B7819C918385809589238C9302
:101B5000A481B5819C918285809589238C93089579
:101B600083B7817F83BF83B7816083BF889583B745
:101B70008E7F83BF0895E4E6F0E0808181608083FA
:101B8000808182608083808180688083808180649E
:101B90008083E5E6F0E0808181608083089580E0C5
:101BA00090E0FB012191BF012EBD119C119C119C65
:101BB00001968115F4E09F07A1F70895CF93DF9375
:101BC000C0E0D4E080E00E946F0D2197D9F7DF914B
:101BD000CF91089583B146B12FB150E04095509513
:101BE0004074552734E0559547953A95E1F730E034
:101BF00020953095207C332756E0359527955A95CA
:101C0000E1F7242B80958077822B08950F931F9303
:101C1000CF93DF93EC010E94262A61E084E00E94CA
:101C2000902B61E086E00E94902B61E08CE00E94A6
:101C3000902B61E08CE00E94C92B61E070E080E0B5
:101C400090E00E94D52A60E08CE00E94C92B6AE0F7
:101C500070E080E090E00E94D52A61E08CE00E9474
:101C6000C92B62E089E00E94902B62E085E00E942F
:101C7000902B62E088E00E94902B62E08AE00E9454
:101C8000902B62E082E10E94902B62E083E10E944F
:101C9000902BEDE0FBE0E491F0E0EE0FFF1FEB5D39
:101CA000F44F859194919D838C83EFEEFAE0E4915B
:101CB000EA87EBE0FBE0E491F0E0EE0FFF1FEB5D65
:101CC000F44F859194919F838E83EDEEFAE0E49139
:101CD000EB8784E00E94760DCE010E94940D0AEC01
:101CE00015E0F5E00B3E1F0739F0F80184910E94E2
:101CF0006F0D0F5F1F4FF5CFCE010E94850DCE01F6
:101D00000E94EA0D803329F4CE010E94DE0D00000E
:101D1000FECFCE01DF91CF911F910F910C94BB0D9F
:101D2000CF93DF93C091B202D091B30280E090E0F4
:101D3000282F3DE0239FF0011124DF011696AA0F02
:101D4000BB1FAA0FBB1FAC0FBD1F7396EE0FFF1F6B
:101D5000EE0FFF1FEC0FFD1F17964C9137814313B9
:101D600003C02F5F243029F730E0281B390B2230C5
:101D700031051CF088E08E8306C001968330910502
:101D8000B9F681E08D83DF91CF9108958091B20201
:101D90009091B3020C94152C8F929F92AF92BF92A8
:101DA000CF92DF92EF92FF920F931F93CF93DF9327
:101DB00000D000D01F92CDB7DEB780910303909181
:101DC00004038F7799270091B2021091B302892BF7
:101DD00081F428E431EE4AE75FE3D8016D917D910B
:101DE0008D919C910E948334F8016083718382837A
:101DF0009383D80116968C911697882309F410C105
:101E0000815016968C9381110CC380E090E0F82EDF
:101E1000482FBDE04B9FF0011124DF011696AA0F59
:101E2000BB1FAA0FBB1FA00FB11F7396EE0FFF1FA2
:101E3000EE0FFF1FE00FF11F17963C912781321321
:101E400003C04F5F443029F7242F30E0281B390BA3
:101E5000223031050CF4DEC0EE24E394E40E2E2D86
:101E600030E0281B390B229FC001239F900D900D5D
:101E70001124F8016581689FA001699F500D11240C
:101E80008091010390910203840F951F90930203A8
:101E9000809301032530310521F48DE591E00E9406
:101EA000D32360E8E091B202F091B302FE1408F08F
:101EB00079C04DE0F49E90011124D9011796AA0F24
:101EC000BB1FAA0FBB1FAE0FBF1F17968C91882395
:101ED00049F18901000F111F000F111F0E0F1F1F65
:101EE00040E050E06801C40ED51ED60193968D9057
:101EF0009D90AD90BC9096975F968D929D92AD927D
:101F0000BC9292974C5F5F4F4831510559F7D90108
:101F10001C96AA0FBB1FAA0FBB1FAE0FBF1F1796A1
:101F20001C923EC0D9011596AA0FBB1FAA0FBB1F5A
:101F3000AE0FBF1F17968C91882319F1220F331F04
:101F4000220F331F6F01C20ED31E40E050E0860106
:101F5000040F151FD8015B968D909D90AD90BC909D
:101F60005E975F968D929D92AD92BC9292974450EF
:101F70005109483EBFEF5B0751F7E20FF31F17828D
:101F80000FC0D9011696AA0FBB1FAA0FBB1FAE0F19
:101F9000BF1F81E08F0D17968C93179719966C933E
:101FA000F39480CF8581823021F489E691E00E940C
:101FB000D323E091B202F091B3028581833021F402
:101FC00086E791E00E94D323E091B202F091B30240
:101FD0008581843021F483E891E00E94D323E0914D
:101FE000B202F091B3028581863020F08EE891E054
:101FF0000E94D323E091B202F091B30285818F5FFA
:1020000085836AE971E089E193E00E94D80B0E9420
:10201000900E07C201968330910509F0F8CE01C2F7
:1020200080910003813009F04AC0F801E55FFE4F5E
:10203000E0812DE0E29FF0011124AF01440F551F14
:10204000440F551F400F511FDA0117968C918111D3
:102050000CC0DF011796AA0FBB1FAA0FBB1FA00F52
:10206000B11F17968C91811103C067EA71E023C0FC
:1020700020E030E0BA01620F731FDB011B96CD90A8
:10208000DD90ED90FC901E971796CD92DD92ED922B
:10209000FC921A972C5F3F4F2033310559F73C963D
:1020A000EE0FFF1FEE0FFF1FE00FF11F17820E94C0
:1020B000900E64EB71E089E193E00E94D80B80916F
:1020C000FE02813009F04CC02091B2023091B3027F
:1020D000F901E55FFE4F8081BDE08B9FC0011124B7
:1020E000FC013C96EE0FFF1FEE0FFF1FE20FF31FE8
:1020F000478141110BC0FC013596EE0FFF1FEE0F1B
:10210000FF1FE20FF31F4781411103C067EA71E02F
:1021100023C0BC01660F771F660F771F8901060F6A
:10212000171F40E050E0F801E40FF51F83A994A9C0
:10213000A5A9B6A987AB90AFA1AFB2AF44505109E2
:10214000403DEFEF5E0779F7F901E60FF71F1782C1
:102150000E94900E64EB71E089E193E00E94D80B3D
:102160008091FC02882309F4ADC0E091B202F091A5
:10217000B302DF01A45FBE4F81E08C938091FF0228
:10218000813009F043C0178D70A161A19F012D5AC4
:102190003F4FD901CD90DD90ED90FC90C78ED0A23D
:1021A000E1A2F2A2AF0149575F4FDA01CD90DD9075
:1021B000ED90FC90D901CD92DD92ED92FC921397B7
:1021C00028593F4FD901CD90DD90ED90FC90DA0178
:1021D000CD92DD92ED92FC921397E151FF4FC080BA
:1021E000D180E280F380D901CD92DD92ED92FC9214
:1021F000139710837183628384E483830E94900E1B
:1022000061EC71E089E193E00E94D80B8091FD02BE
:10221000813009F04DC0E091B202F091B302AF01FC
:1022200041515F4FDA011C9111967C9111971296E2
:102230006C919F0125543F4FD901CD90DD90ED90D9
:10224000FC90DA01CD92DD92ED92FC921397485604
:102250005109DA01CD90DD90ED90FC90D901CD923D
:10226000DD92ED92FC92139728563109D901CD9059
:10227000DD90ED90FC90DA01CD92DD92ED92FC9232
:102280001397C78CD0A0E1A0F2A0D901CD92DD9226
:10229000ED92FC921397178F70A361A382E082A343
:1022A0000E94900E61EC71E089E193E00E94D80BEE
:1022B0008091FC02813031F461EC71E089E193E0BE
:1022C0000E94D80B0091B2021091B302F801648110
:1022D0006F5F648370E080E090E00E94CF33D801AC
:1022E0002D913D914D915C910E947F3418160CF018
:1022F00098C0F801148220E05DE040E080E090E0CA
:1023000030E0F801E80FF91F678161113F5F049623
:1023100084339105B1F7351720F44983532F21E019
:102320000AC0351308C0E1E0F0E0EC0FFD1FE20F3A
:10233000F11D40832F5F4F5F0C5C1F4F4530F1F65E
:102340005D3019F40E94C3286CC030E040E050E0DA
:1023500060E070E0CB010E949330FE01E60FF71FB2
:10236000F1800091B2021091B302FDE0FF9EC00126
:102370001124AC01440F551F440F551F400F511F2E
:1023800020E030E061E0FA01E20FF31F73A1711168
:102390000DC06A5FFC01E60FF11DEE0FFF1FEE0F8F
:1023A000FF1FE00FF11F20E8218719C0FA01E21B8F
:1023B000F30B738D71110EC026E0261B622FFC01FA
:1023C000E20FF11DEE0FFF1FEE0FFF1FE00FF11FD9
:1023D000118605C06F5F2C5F3F4F6730A1F66C011F
:1023E000C60ED11C26E030E040E050E061E070E035
:1023F00080E090E00E949330C601880F991F880FFB
:10240000991FF801E80FF91F6783E091B202F0917C
:10241000B302E80FF91F8BE0F89E802D1124835F33
:1024200082878091FC02811137C0E091B202F09165
:10243000B302E45FFE4F8081882369F064EB71E0B2
:1024400089E193E00E94D80BE091B202F091B302CF
:10245000E45FFE4F10828091FF02813069F4E091C9
:10246000B202F091B302E55FFE4F8081815080831C
:10247000853010F084E080838091FD02813061F42A
:10248000E091B202F091B302E55FFE4F80818F5F71
:102490008083853008F010820F900F900F900F907E
:1024A0000F90DF91CF911F910F91FF90EF90DF90F0
:1024B000CF90BF90AF909F908F90089587FD0CC0F4
:1024C000803418F09FE7981B892FE82FF0E0E55142
:1024D000FA4F849190E00EC0E0E8E80FE03410F08D
:1024E000E82FE095F0E0E551FA4F849190E0919566
:1024F0008195910902C0959587956A95E2F70895AF
:10250000805C0C945E123F924F925F926F927F922A
:102510008F929F92AF92BF92CF92DF92EF92FF92F3
:102520000F931F93CF93DF93B72E482E623009F499
:102530004CC0D0F5662309F45FC1613009F029C1B0
:10254000C92FD0E01AEA170F66E0812F0E9480128F
:102550006E01C80ED91E512C66E0812F0E945E12BA
:102560007201E80EF91E05E5902E9B0C66E0892DA0
:102570000E9480128E01080F191F66E0892D0E94AB
:102580005E124201880E991E66E08B2D0E94801219
:10259000C80FD91F66E08B2D0E945E12B201680F32
:1025A000791FAA24A39476C0892E912CC82ED12CF1
:1025B000643009F4A7C008F474C0653009F0E9C0BC
:1025C000C0E0D0E006E010E0C4C0C92FD0E010E4C5
:1025D000170F66E0812F0E9480126E01C80ED91E6F
:1025E000512C66E0812F0E945E127201E80EF91EE6
:1025F00010E8312E3B0C68E0832D0E9480128E0182
:10260000080F191F68E0832D0E945E123201680EC8
:10261000791E68E08B2D0E9480124E01880E991E53
:1026200068E08B2D0E945E12B201680F791FAA2408
:10263000A3949301A40189E093E00E94F80810ECB0
:102640001B0D66E0812F0E9480126E01C80ED91EFC
:1026500066E0812F0E945E127201E80EF91E68E0AA
:10266000832D0E9480128E01080F191F68E0832DB0
:102670000E945E124201880E991E68E08B2D0E9416
:102680008012C80FD91F68E08B2D0E945E12B20124
:10269000680F791F9401AE0189E093E00E94F80869
:1026A000ABC080E4B80EC4E0FC2E66E08B2D0E9427
:1026B00080128401080F191F66E08B2D0E945E12A4
:1026C0003601680E791EB0ECEB2EEB0C66E08E2D19
:1026D0000E948012E401C80FD91F66E08E2D0E946F
:1026E0005E12B601680F791FEE24E3949301AE01E8
:1026F00089E093E00E94A207FA9480E4B80EF110FA
:10270000D4CF7AC0C0E0D0E0A5E06A2E712CCE0113
:10271000B3010E940635FB2CF60E66E08F2D0E9459
:1027200080128401080F191F66E08F2D0E945E122F
:102730009601280F391FEE24E394A401B60189E025
:1027400093E00E94A207D395C11585E0D807F9F65A
:1027500053C0CE01B8010E9406357B2C760E66E090
:10276000872D0E9480127401E80EF91E66E0872D05
:102770000E945E12B601680F791F21E0A70189E06F
:1027800093E00E947B07D395C11586E0D80709F72F
:1027900033C080E2B80EF8E0FF2EC92FD0E0512CF4
:1027A00065E08B2D0E9480128E01080F191F65E0D5
:1027B0008B2D0E945E124201880E991EE0EEEE2ED5
:1027C000EB0C65E08E2D0E9480126E01C80ED91EA2
:1027D00065E08E2D0E945E12B201680F791FEE2413
:1027E000E3949401A60189E093E00E94A207FA9481
:1027F00080E2B80EF110D4CFDF91CF911F910F91ED
:10280000FF90EF90DF90CF90BF90AF909F908F9010
:102810007F906F905F904F903F9008958F929F921E
:10282000AF92BF92CF92DF92EF92FF920F931F93DE
:10283000CF93DF931F92CDB7DEB789E093E00E947C
:102840007107E091B202F091B3028681811104C058
:102850008091FC02811105C0E12CF12C0FE310E006
:102860001DC001E02FE330E048E050E067E370E096
:1028700089E093E00E942D082FE330E048E050E02B
:1028800066E470E089E093E00E942D082AC08FEF93
:10289000E81AF80AE8E3EE16F10419F1809103034F
:1028A0009091040396958795969587958E0D9F1D1B
:1028B00083709927029758F721E0A701485F5F4F7F
:1028C00067E370E089E093E00E947B0721E0A801C4
:1028D0004E195F0966E470E089E093E00E947B078F
:1028E000D6CF70910303E091B202F091B302E55F9D
:1028F000FE4F90818BE0989F902D11246BE08FE329
:10290000935F0E9483126DE0862E912CE12CF12CB6
:1029100049E000E010E08091B2029091B302F8012A
:10292000EE0DFF1DEE0FFF1FEE0FFF1FDC01AE0FC0
:10293000BF1F17962C91222309F46AC03796E80F1F
:10294000F91FC280AC2DB0E05381A52EB12CC5017A
:10295000880F991F8C19880F6091030370910403ED
:1029600076956795860F8183802F063020F49BEF44
:10297000D92ED40E02C0063031F0873028F085E021
:10298000D82ED40E01C0D42E6D2D70E09B012A1BD1
:102990003B0B37FF02C02D5F3F4F3595279535958F
:1029A00027952C0DA22FB0E0A61BB70B1A161B06FD
:1029B0000CF4215022838281282F30E0261B370B14
:1029C00037FF02C08F5F8283C4018A199B0997FD7C
:1029D00003969595879595958795850F282F30E0D7
:1029E00028193909121613060CF4815083832381A8
:1029F000822F90E08819990997FF02C02F5F2383E7
:102A0000608171818281938149830E94831249810F
:102A10000F5F1F4F475F4E3709F07DCFFDE0EF0E90
:102A2000F11C8BE0880E911CE1E4EE16F10409F034
:102A30006FCF809103039091040301969093040358
:102A4000809303030F90DF91CF911F910F91FF901F
:102A5000EF90DF90CF90BF90AF909F908F900895B0
:102A6000CF93DF938DE091E00E94132CFC018DE069
:102A700091E0DF019C011D9221503040E1F740E0E0
:102A800050E060E772E4408351836283738381E0A6
:102A90008583DF01A55FBE4F82E08C93F093B30284
:102AA000E093B20220E030E040E05DE0CFE3DBE025
:102AB000DF01A20FB31F17961C921797842F652F63
:102AC0000E94E634963069F41996CC9319978D9F3D
:102AD000902D1124935B1A969C931A978F5F1796EB
:102AE0008C934F5F2C5F3F4F413411F7DF91CF91B3
:102AF0000895FC0180E395E1918380838CEC9EE056
:102B0000938382838EE094E19583848386EC9EE0B8
:102B1000978386830895DF92EF92FF920F931F931E
:102B2000CF93DF93082F162FC82FD0E0FF24F39404
:102B3000EE24EA94E80EDD24D394D80E2091B4025A
:102B40003091B502AE0187E0189F400D511D112450
:102B5000FA01EE0FFF1FE40FF51FE20FF31F808550
:102B6000811124C09781D901A652BF4F8C9198132F
:102B70001DC011979C919F5F9C93F086011105C029
:102B8000612F8D2D0E948B1506C0612F8E2D0E9406
:102B90008B150630A8F3112339F06FEF610F802FEA
:102BA0000E948B15193010F41F5FC8CFDF91CF91B1
:102BB0001F910F91FF90EF90DF9008958091B402E4
:102BC0009091B5020C94152CEF92FF920F931F93E6
:102BD000CF93DF938F5F4230A1F0433091F14130CA
:102BE00009F052C0462F50E0682F70E0EE24E394C5
:102BF00003E010E021E130E089E093E00E94CA08A0
:102C000043C0E62EF12CC82FD0E001E021E130E0F6
:102C1000A701BE0189E093E00E945D08BE01605FEC
:102C20007F4F23E030E0A70189E093E00E942D0868
:102C300023E030E0A701BE0189E093E00E942D0867
:102C400023C0E62EF12CC82FD0E001E021E130E0D6
:102C5000A701BE0189E093E00E945D0810E001E158
:102C6000812F602F0E94E634A701480F511D4F5F4E
:102C70005F4FBE01690F711D21E089E093E00E9462
:102C80007B071E5F123261F7DF91CF911F910F9189
:102C9000FF90EF900895AF92BF92CF92DF92EF92A4
:102CA000FF920F931F93CF93DF931F92CDB7DEB7A1
:102CB00089E093E00E94710791E0E12CF12C18E08B
:102CC000C12ED12C00E010E0A8014E0D5F1D9A012D
:102CD000220F331F240F351F2A5F3F4FE091B402AC
:102CE000F091B502E20FF31F4181411109C08FEF4E
:102CF000E81AF80A9E5E9F3711F700E010E02CC03A
:102D00008081282F30E02C153D0514F48F5F8083DF
:102D10008081682F70E0C616D70674F48150960142
:102D2000281B310937FF02C02D5F3F4F359527958E
:102D300035952795280F20836081892F99830E94DC
:102D4000E415095F1F4FE4E0CE0ED11C99810634D3
:102D5000110509F0B9CFCBCF809103039091040303
:102D60009695879596958795800F911F83709927E3
:102D7000029740F421E040E350E0B80189E093E09D
:102D80000E947B070F5F1F4F0038110529F700E0F5
:102D90001CEFA2E1FA2E2091B4023091B502F901A4
:102DA000E552FF4F8081081708F042C0402F50E0E5
:102DB0001403B001159F700D1124420F531FFA0127
:102DC000E452FF4FE081CB01CB968E1B910997FD1A
:102DD000039695958795959587958E0FE82FF0E04A
:102DE000DB01D796AE17BF0724F0FA01E452FF4F7C
:102DF00009C0665C7F4F6E177F07BCF3FA01E4528F
:102E0000FF4F8F5F8083D901A652BF4FBA01645232
:102E10007F4F28523F4FF90180818F9D802D1124D3
:102E20004C91FB0160818F5F0E94E4150F5FB3CF6F
:102E3000E55BFF4F8081853008F03FC0F12C97E0C3
:102E4000D92E8091B4029091B502FC01E152FF4F5E
:102E50002081E95BFF4FF21668F5E081F0E08F0119
:102E60000E5F1F4F000F111F8F0D911DDC01A0522F
:102E7000BF4F8C916D2D0E94E6349801235F3F4F28
:102E8000482F50E04E5F5F4F440F551F440F551FB2
:102E90004E1B5F0B82E1989FB00111246E5F7F4F44
:102EA0006E1B7F0BEE24E39489E093E00E948D0873
:102EB000F394C7CF80818F5F8083E091B402F0915B
:102EC000B502E852FF4F6081E2E16E9FB00111242C
:102ED0006E5F7F4F01E021E130E04FE350E089E099
:102EE00093E00E945D088091030380FF51C08091B0
:102EF000B4029091B502FC01E852FF4F6081462F69
:102F000050E07AE071509A01F7E07F9F200D311D6B
:102F10001124F901EE0FFF1FE20FF31FE80FF91F55
:102F20002781222311F0868103C07111EBCF84E049
:102F3000282F30E0690188E0C80ED11CE2E16E9FC5
:102F4000B00111245901F4E0AF0EB11C9B012A5FBE
:102F50003F4F665F7F4FEE24E3948601A50189E031
:102F600093E00E94A207E091B402F091B502E8520A
:102F7000FF4F608182E1689FB00111249B01225FB5
:102F80003F4F665F7F4FA50189E093E00E94A20753
:102F9000809103039091040301969093040380931E
:102FA00003030F90DF91CF911F910F91FF90EF904E
:102FB000DF90CF90BF90AF900895FF920F931F9333
:102FC000CF93DF934091B4025091B5029A012B5EEA
:102FD0003F4FCA01FC01EC53FF4F6081662339F07B
:102FE000DF91CF911F910F91FF900C94C32803960E
:102FF0008217930779F767E080E090E09A01280F45
:10300000391FF901E255FF4F7081759670837497EF
:10301000708175967083459783342FEF920771F70F
:1030200061504D5F5F4F6111E7CFC0E0D0E0E4E059
:10303000FE2E0091B4021091B502CE01880F991FA7
:103040008C0F9D1F080F191FF801F68224E030E055
:1030500040E050E061E070E080E090E00E9493305A
:10306000F80167832196C730D10519F7DF91CF9119
:103070001F910F91FF900895CF92DF92EF92FF92F0
:103080000F931F93CF93DF93CDB7DEB761970FB642
:10309000F894DEBF0FBECDBF80910303909104036F
:1030A00066E970E00E94F2340091B4021091B5021A
:1030B000892B81F428E431EE4AE75FE3D8016D9172
:1030C0007D918D919C910E948334F801608371837E
:1030D0008283938380910003813041F4F801E852A8
:1030E000FF4F8081882311F0815080838091FE0200
:1030F000813041F4F801E852FF4F8081863010F4AE
:103100008F5F8083D80115968C911597882309F4D9
:10311000A6C0815015968C9381119BC165ED71E01D
:1031200089E193E00E94D80B8091B4029091B5029E
:10313000FC01E152FF4F108220E030E040E0DC0172
:10314000A20FB31F18965C911897552371F017962C
:103150001C92179718961C925081DC01A50FB11D87
:10316000A052BF4F4C935F5F50834F5F2D5F3F4F27
:10317000223D310521F7FC01EA5DFE4F10821982E4
:103180001A821B821C82FE0135962DE0DF011D9202
:103190002A95E9F7FC01E752FF4F608170E0CE010C
:1031A00001960E946C236EEC71E0CE0101960E94A4
:1031B000B823CE0101960E94D3234091B4025091CE
:1031C000B502FA01E752FF4F2081809101039091EF
:1031D0000203229F800D911D11249093020380937E
:1031E00001031082BA0120E030E080E090E0EE249C
:1031F000E394DB01A80FB91F1796EC911797E11123
:1032000021C0FE2C8901E7E0FE9E000D111D112456
:10321000F801EE0FFF1FE00FF11FE40FF51F8F0104
:10322000095F1F4FD780DD2049F01796DC92179772
:10323000E6811696EC93D8011C9204C0F394EAE060
:10324000FE12E0CFE39445968D3B910591F62F5FFA
:103250003F4F6D5F7F4F2730310539F6FAC08091BF
:10326000FD02813009F048C07801FBEDEF0EF11C42
:10327000D7015C91533008F03FC0F801E852FF4F8E
:10328000208130E04AE04150C901B7E04B9F800DFA
:10329000911D1124FC01EE0FFF1FE80FF91F369658
:1032A000E00FF11F6181662329F1C80186529F4F0B
:1032B000DC0151110AC06C93808104521F4FD80168
:1032C0008C9381E0D7018C930DC08C91681314C04E
:1032D0008081050F111D04521F4FD8018C935F5F31
:1032E000D7015C9311826CEF71E089E193E00E9459
:1032F000D80B02C04111C7CF809103030091B402E3
:103300001091B50280FF04C0F80184818F5F84832F
:10331000D80114966C9170E080E090E00E94CF3369
:10332000F80120813181428153810E947F34181637
:103330003CF40E94DD17E091B402F091B5021482D2
:103340008091FF02813009F084C08091B402909195
:10335000B5026C01FBEDCF0ED11CD6012C912223BE
:1033600009F477C0FC01E852FF4F208130E06AE0A9
:10337000FF24FA94F60EA901B7E0FB9E400D511D03
:103380001124FA01EE0FFF1FE40FF51FE80FF91FDC
:103390004781411104C0FF2031F06F2DE9CF6A3021
:1033A00009F451C0F62E8C0106521F4FF6016081C0
:1033B0006623F9F0A901E7E0FE9E400D511D11249E
:1033C000FA01EE0FFF1FE40FF51FE80FF91FD801F8
:1033D0004C9147836150D6016C93AC01460F511D4F
:1033E00044525F4FDA014C914683F394BAE0FB12EA
:1033F000DDCF6FEE71E089E193E00E94D80B009180
:10340000B4021091B5026FEF6F0DF801E852FF4F53
:1034100080810E948B15F801E752FF4F8081843034
:1034200028F089E0D80115968C9313C080E090E0D5
:10343000D801A80FB91F18961C920396823D9105DA
:10344000B9F7108206C062EE71E089E193E00E9454
:10345000D80B61960FB6F894DEBF0FBECDBFDF91DB
:10346000CF911F910F91FF90EF90DF90CF90089533
:1034700087E291E00E94132C27E231E0FC01A901D0
:10348000119241505040E1F740E050E066E173E4B2
:10349000FC014083518362837383AC014A5F5F4FB9
:1034A00020E030E0FA01E20FF31F10821182128255
:1034B0002D5F3F4F223D3105A9F723E0FC01E85283
:1034C000FF4F208331961082319610823196108200
:1034D00034961082E95BFF4F10829093B50280937F
:1034E000B40220E030E0FC01E20FF31F16821782E5
:1034F00010862D5F3F4F223D3105A9F70E94DD1751
:103500000E94DD170C94DD17FC0188E39AE191839A
:1035100080838CE398E1938382838BE496E19583A7
:1035200084838EED95E19783868308950F931F938F
:10353000CF93DF932091B6023091B70280E090E004
:10354000D5E015E001E0C5E0C150AC016BE0C69FDD
:10355000400D511D1124D49FF001D59FF00D112471
:10356000E20FF31F6085611133C0AC2FAA2381F1F4
:10357000A150BC01EBE0AE9F600D711D1124D69FE0
:10358000F001D79FF00D1124E20FF31FE085EE2329
:1035900069F34F5F5F4F149FD001159FB00D112449
:1035A000A20FB31F6F5F7F4F169FF001179FF00DA3
:1035B0001124E20FF31F438113964C93139740811C
:1035C0004C93418111964C93119712960C93138250
:1035D000C111BACF01968B30910509F0B4CFDF91BC
:1035E000CF911F910F910895CF92DF92EF92FF92AA
:1035F0000F931F93CF93DF93082F162FC82FD0E080
:1036000085E0F82EEE24E394DD24DA94D00ECC2469
:10361000C394C00E2091B6023091B702AE018BE088
:10362000189F400D511D1124F49EF001F59EF00DE0
:103630001124E20FF31F8185811120C0D901A45EFE
:10364000BE4F90858C91981319C0E186011105C079
:10365000612F8C2D0E94F41A06C0612F8D2D0E94BF
:10366000F41A0A30A8F3112339F06FEF610F802F9D
:103670000E94F41A143010F41F5FCCCFDF91CF9169
:103680001F910F91FF90EF90DF90CF900895EF92F0
:10369000FF920F931F93CF93DF9300D000D01F9220
:1036A000CDB7DEB74091B6025091B702FA01E85E9D
:1036B000FE4F008110E03196E080F8019BE0E99E2A
:1036C000E00DF11D1124319695E0F92EFE9E90013A
:1036D000FF9E300D1124240F351F95E0F901DE0106
:1036E000119601900D929A95E1F7F801E80FF11DFE
:1036F00087FDFA95CF01772767FD70956E0D711DD7
:10370000ABE0A69FF001A79FF00D11248E0F9F1F25
:103710000196F89EB001F99E700D1124640F751F7B
:1037200085E0FB01D90101900D928A95E1F785E0D2
:10373000FE013196DB0101900D928A95E1F70F9021
:103740000F900F900F900F90DF91CF911F910F91DD
:10375000FF90EF9008958091B6029091B7020C947B
:10376000152CDF92EF92FF920F931F93CF93DF936D
:1037700000D000D01F92CDB7DEB7D82E19821A82A2
:103780001B821C821D828091B6029091B702AC010F
:1037900025E0D29E400D511D112420E030E000E0D4
:1037A000ED2CF12CFA01E20FF31F6085662331F056
:1037B000FE01E60FF11D21E0218305C00F5F295CAA
:1037C0003F4F053079F701502BE0029F8001112413
:1037D000D11017C09701200F311F2F5F3F4F45E0D9
:1037E000429FF001439FF00D1124E80FF91F8085DF
:1037F000E1E0F0E0EC0FFD1FE80FF11D81E08083B8
:1038000019C09701200F311F2150310945E0429F17
:10381000F001439FF00D1124E80FF91F2085E1E02E
:10382000F0E0EC0FFD1FE20FF11D21E0208329E005
:103830002D1580F6FE013296CE01069640E02191CC
:1038400021114F5FE817F907D1F724E030E0241B7E
:103850003109442737FD4095542F60E070E0CB01DB
:103860000E94933020E030E041E0621769F0E1E02F
:10387000F0E0EC0FFD1FE40FF11D80814F5F81111F
:10388000F6CF2F5F3F4FF1CFE1E0F0E0EC0FFD1FEF
:10389000E40FF11D8081882311F04F5FF5CF0E0DED
:1038A0001F1D0F5F1F4F25E0209FC001219F900D1E
:1038B0001124E091B602F091B702E80FF91F8BE0F6
:1038C000D89ED02C1124D082118281E08283438340
:1038D0000F900F900F900F900F90DF91CF911F914D
:1038E0000F91FF90EF90DF9008959F92AF92BF925B
:1038F000CF92DF92EF92FF920F931F93CF93DF93BC
:10390000CDB7DEB76F970FB6F894DEBF0FBECDBF51
:10391000809103039091040366E970E00E94F23401
:103920000091B6021091B702892B81F428E431EEA0
:103930004AE75FE3D8016D917D918D919C910E9442
:103940008334F80160837183828393838091FC02C6
:1039500030910003882309F4ECC07801F8EEEF1AE7
:10396000FEEFFF0AD7012C916801B7EECB1ABEEF2C
:10397000DB0AF6018081FBE08F9FC0011124820FDA
:10398000911D55E0B52EB89EF001B99EF00D1124A1
:10399000E00FF11F8085882309F4CBC0313031F569
:1039A000222321F12150D7012C9360E081E00E9475
:1039B000471BF6018081D7012C91BBE08B9FC00192
:1039C0001124820F911D0196B89EF001B99EF00D51
:1039D0001124E00FF11F8085811102C00E94961A08
:1039E0006DE072E089E193E00E94D80B8091FE02C5
:1039F000813089F5E090B602F090B7028701085E49
:103A00001E4FF80180818A3030F58F5F808360E03F
:103A10008FEF0E94471BF701E75EFE4F8081D801C0
:103A20002C91BBE08B9FC0011124820F911D019747
:103A300025E0289FF001299FF00D1124EE0DFF1DB8
:103A40008085811102C00E94961A6DE072E089E1C2
:103A500093E00E94D80B8091B6029091B702FC01CE
:103A6000E75EFE4FAC01485E5E4F75E060816430FA
:103A700098F4DA011C91BBE06B9F90011124210F97
:103A8000311D729FD001739FB00D1124A80FB91F73
:103A900018962C91222329F02091FF02213071F5F4
:103AA00003C06F5F6083E2CF662341F1DC01A85E53
:103AB000BE4F7C91462F50E041505109ABE0A49F8E
:103AC0009001A59F300D1124270F311D45E0429F25
:103AD000D001439FB00D1124A80FB91F18968C91E7
:103AE000882361F06150608361E080E00E94471BA1
:103AF0006DE072E089E193E00E94D80B8091FD02B5
:103B0000813009F044C0E091B602F091B702E75E5F
:103B1000FE4F80818430D8F58F5F80836FEF80E027
:103B20000E94471B6DE072E089E193E00E94D80B90
:103B30002EC0313041F4F801E85EFE4F80818823C9
:103B400011F0815080838091FE02813041F4F801B0
:103B5000E85EFE4F80818A3010F48F5F8083809111
:103B6000FF02813041F4F801E75EFE4F8081882337
:103B700011F0815080838091FD02813041F4F80181
:103B8000E75EFE4F8081843010F48F5F808335EFD5
:103B9000E32EFF24FA9445E0A42E2BE0922E9E0CF7
:103BA0009701B12C9AE09E0D0091B6021091B702D8
:103BB0006901EBE0CE0ED11CAC9CF001AD9CF00D88
:103BC0001124E00FF11F8085882309F44EC047813E
:103BD00041114BC0993020F5A901445F5F4FA49E6D
:103BE000D001A59EB00D1124A00FB11F17964C91C6
:103BF0001797411115C0A901465F5F4FA49EF001C0
:103C0000A59EF00D1124E00FF11F4781411108C05E
:103C100018964C91841304C04085841709F45AC146
:103C20004FEF4B0D433008F5A9014A5E5F4FA49E4C
:103C3000D001A59EB00D1124A00FB11F17964C9175
:103C40001797411112C0A29EF001A39EF00D1124FE
:103C5000E00FF11F2781211108C018962C918213C3
:103C600004C02085821709F435C1B394F5E0BF166E
:103C700011F0960199CF3FEFE31AF30A09F08DCFC7
:103C800080E090E0B12C20E0D801A35EBE4FF801A7
:103C9000E80FF91F3185332361F0B3941086118644
:103CA0003C91F801E30FF11DE25EFE4F20833F5F80
:103CB0003C932F5F0596833141E0940741F7BB2089
:103CC00009F48FC0F801EB5AFE4F108219821A8254
:103CD0001B821C82FE0135968DE0DF011D928A95C4
:103CE000E9F7EB2CF12CB701CE0101960E946C2371
:103CF000E091B602F091B702E65EFE4F808182301D
:103D0000A8F069E072E0CE0101960E94B823E0912C
:103D1000B602F091B702E65EFE4F608170E0CE0120
:103D200001960E946C2367E871E002C06EEC71E0BE
:103D3000CE0101960E94B823BE016E5E7F4F8DE0DA
:103D4000FB0111928A95E9F780E190E09B8B8A8BC9
:103D50008CE090E09D8B8C8B87E090E0998F888F32
:103D600089E190E09D8F8C8FE091B602F091B702CF
:103D7000E55EFE4F208181EF9FEF821B91099F8BB3
:103D80008E8B89E193E00E94D80BCE0101960E94B0
:103D9000D323C090B602D090B7028601065E1E4FB4
:103DA000D8018C918B9DC00111248E9D90018F9D17
:103DB000300D9E9D300D11248091010390910203DE
:103DC000820F931F90930203809301030E94961A1F
:103DD000F601E55EFE4F80E18083F80180818F5F10
:103DE00080830091B6021091B702F801E55EFE4FA4
:103DF0008081882311F0815004C081E0F801E65EE3
:103E0000FE4F8083809103039091040381329105DA
:103E100038F46BE070E00E94F2340E94B11B67C07E
:103E2000D80114966C9114976F5F14966C9370E0A0
:103E300080E090E00E94CF33F801208131814281FF
:103E400053810E947F3418160CF051C080E090E03E
:103E500020E0F801E80FF91F3085311101C02F5F14
:103E6000059687339105A9F7211103C00E94C32845
:103E70002BC030E040E050E060E070E0CB010E94F9
:103E800093304091B6025091B70220E030E080E0DC
:103E900095E0621761F0FA01989FE00DF11D112481
:103EA00070858F5F7111F7CF2F5F3F4FF2CF25E005
:103EB000FA01289FE00DF11D11249085992311F03E
:103EC0008F5FF6CF0E94B11BE091B602F091B7026E
:103ED00014820DC0F801E35EFE4F1082319780839B
:103EE0006B2D892D9F8F0E94F41A9F8DBECE6F96E9
:103EF0000FB6F894DEBF0FBECDBFDF91CF911F91FB
:103F00000F91FF90EF90DF90CF90BF90AF909F9078
:103F1000089586E591E00E94132C26E531E0FC012E
:103F2000A901119241505040E1F740E050E060EFAC
:103F300071E4FC0140835183628373833A969C0150
:103F4000235E3E4FDF0115971C9211961C9211962D
:103F50001C9211961C9211961C923596E217F3074B
:103F600089F725E0DC01A85EBE4F2C9324E0119672
:103F70002C9321E011962C9311961C9211961C9271
:103F80001082FC01EB5AFE4F10829093B70280938F
:103F9000B60220E030E0FC01E20FF31F10862B5F39
:103FA0003F4F2331F1E03F07B1F708952F923F9241
:103FB0004F925F926F927F928F929F92AF92BF9239
:103FC000CF92DF92EF92FF920F931F93CF93DF93E5
:103FD000CDB7DEB761970FB6F894DEBF0FBECDBF89
:103FE000182F89E093E02B874A8769870E94670B27
:103FF0009D878C872B854A856985011102C030E039
:1040000001C039E0A12FB0E052E3659FB001112457
:104010005B01AA0EBB1ECD01880F991F9A8389836D
:10402000622E66946694669490E8699E300111242D
:104030002301E0E84E0E511CFD013196E60FF71FFB
:10404000FF87EE8783E090E08A1B9B0B880F991F08
:104050006FEF70E002C0759567958A95E2F7162FAD
:1040600084E090E08A1B9B0B880F991F820F911DA3
:104070007C0197FF03C0F7E0EF0EF11C63E0F594BD
:10408000E7946A95E1F7F694FE2CEE24F794E79412
:10409000E8E0CE2ED12CB6010E9406354C01170166
:1040A00050E8250E311CB601681B790B7C836B83AD
:1040B000198A188AC501855D994F9E838D83A42E28
:1040C000B12C2770D601A21BB109B887AF83EE854A
:1040D000FF85E55DF94F6F018D819E814889598982
:1040E000840F951FFC01A491C501830F911DAC01A4
:1040F000460D571D6C857D85460F571FEA2FF0E052
:10410000098002C0F595E7950A94E2F7FF27BF0101
:10411000022E01C0660F0A94EAF7DA017C91762B31
:104120007C93AC01440D551D6C857D85460F571F52
:104130000F8002C0F595E7950A94E2F7DA016C91D9
:104140006E2B6C93E889F989EC0DFD1D4491FC01FF
:10415000EE0DFF1D6C857D85E60FF71F412350E0B6
:10416000BA01082C01C0660F0A94EAF77081762B19
:104170007083FC01E20DF31D8C859D85E80FF91F0E
:104180000B8002C0559547950A94E2F78081842BF5
:104190008083002311F0315001C03F5FA889B989A5
:1041A0001596B98BA88BD29709F096CF61960FB66A
:1041B000F894DEBF0FBECDBFDF91CF911F910F915D
:1041C000FF90EF90DF90CF90BF90AF909F908F9037
:1041D0007F906F905F904F903F902F9008953F9207
:1041E0004F925F926F927F928F929F92AF92BF9207
:1041F000CF92DF92EF92FF920F931F93CF93DF93B3
:1042000000D01F92CDB7DEB789E093E00E9471071E
:104210001B821A82C12CD12C75E0372EE6E08E2E3F
:10422000912CF3E06F2E712CFA8033E315E01150DE
:104230006BE0169FA0011124B601640F751F6F5F1C
:104240007F4F369EC001379E900D1124A091B6027B
:10425000B091B702A80FB91F1396EC901397EE20F8
:1042600009F484C012968C91129711962C91119793
:10427000485F5F4F8823B1F0982F9695920F119663
:104280009C9311978F5F12968C931297892F90E0D1
:104290004817590704F511963C93119712961C92F2
:1042A000129719C0CA01821B910997FD0396959533
:1042B000879595958795820F11968C931197FA01A2
:1042C000E81BF109CF010396079728F481E0830FDB
:1042D00011968C9311972C918A819B81821B910955
:1042E00097FD03969595879595958795820F4A81B9
:1042F0005B81481B51094D5F5F4F4730510510F0FE
:104300008C9301C0FC92E0910303F09104034C9163
:10431000A42EB12C11962C91422E512CCF019695A2
:104320008795969587958A0D9B1D840D951DB401E3
:104330000E94F23401E0039708F400E04D5FC201EF
:104340008A0D9B1D3196F695E795F695E7958E0FAC
:104350009F1FB3010E94F23461E0892B09F060E0F5
:104360008FEF8E0D39830E94D61F39813B5011117A
:104370005ECFFFEFCF1ADF0A4A815B81455F5F4F57
:104380005B834A835BE0C516D10409F04DCFE09111
:10439000B602F091B702EB5AFE4F80818B3008F0E5
:1043A00066C0312C7BE0F72E8091B6029091B70267
:1043B000FC01E35EFE4F2081F896321608F054C0EF
:1043C000830D911DDC01A25EBE4F8C919081292F3F
:1043D00030E035952795492E420E6F2D691BE62F4B
:1043E000F0E0FB83EA836F2D0E94E6348F9D802DE1
:1043F0001124885F882E912C3401621A730A9F9DC4
:10440000902D11249D5FA92EB12C6501C21AD30AEB
:10441000EE24E3948F019801A301B60189E093E0B3
:104420000E948D08512CA40CB51C0A811B81980197
:10443000A301B50189E093E00E948D08840C951CCE
:104440000A811B819801A401B50189E093E00E94D3
:104450008D080A811B819801A401B60189E093E0CF
:104460000E948D083394A0CF80818F5F80838091DC
:10447000030380FF20C08091B6029091B702FC0137
:10448000E75EFE4F408131976081FBE04F9FA001C6
:104490001124495F5F4F8BE0689FB00111246E5F6C
:1044A0007F4FEE24E3940CE010E02CE030E089E054
:1044B00093E00E948D08809103039091040301967C
:1044C00090930403809303030F900F900F90DF915C
:1044D000CF911F910F91FF90EF90DF90CF90BF9001
:1044E000AF909F908F907F906F905F904F903F9094
:1044F0000895FC0189E89FE19183808385E79CE131
:10450000938382838FEE90E2958384838BEA9BE191
:1045100097838683089580E490E00E947B35909392
:10452000BD028093BC0280E090E028E8E091BC02EC
:10453000F091BD02E80FF91F2083019680349105A8
:10454000A9F789ED95E290930803809307030895F6
:104550004091FA024423B9F041504093FA024930A5
:1045600018F040E050E003C050E04850510960E0CE
:1045700070E089E093E00E94580B69EE72E089E0F8
:1045800093E00C94552C40E050E060E070E089E04E
:1045900093E00E94580B67E272E089E093E00E948A
:1045A000552C60910103709102034AE050E089E0CC
:1045B00093E00C94BD2C89E093E00E94670B40E0EF
:1045C00020E030E070E0FC01E20FF31F5081652F26
:1045D00066956074550F572B508320583F4F211517
:1045E00054E0350711F0762FEECF4F5F019640383B
:1045F00039F780910503909106034D9728F0E091DB
:10460000BA02F091BB02099408950C940C370F93F1
:104610001F93CF93DF93CDB7DEB72D970FB6F894E6
:10462000DEBF0FBECDBF08EF1FEF89E093E00E9411
:104630007107A8016EE270E089E093E00E94580BD8
:104640006AE172E089E093E00E94552C89E093E0F2
:104650000E94610B61E270E080E090E00E94D52A48
:104660000E5F1F4F0C31110501F78DE0E4E1F1E021
:10467000DE01119601900D928A95E1F7BE016F5F00
:104680007F4F89E193E00E94D80B60EA70E080E000
:1046900090E00E94D52A8DE0E1E2F1E0DE01119682
:1046A00001900D928A95E1F7BE016F5F7F4F89E11E
:1046B00093E00E94D80B68EE73E080E090E00E94E7
:1046C000D52A2D960FB6F894DEBF0FBECDBFDF9171
:1046D000CF911F910F910895DF92EF92FF920F9368
:1046E0001F93CF93DF93FC01EB01DC0120E08D9160
:1046F000811133C081E090E03AE0C817D90740F05B
:10470000AC01349FC001359F900D11242F5FF5CF70
:10471000DF01A20FB11D1C924FEF420F21E030E0EC
:104720000AE010E08AE0D82EC217D307C8F07F0154
:10473000E40EF11CCE01B9010E94F234CB01B801A4
:104740000E94F234805DD7018C93C901D89E9001FC
:10475000D99E300D11244150E7CF2F5F2F3F39F6FE
:10476000DF91CF911F910F91FF90EF90DF9008950F
:10477000FC0120E03191311112C0322F422F431B36
:10478000FB01E40FF11D4081DC01A20FB11D4C9330
:104790004081442339F02F5F2F3F81F708952F5F29
:1047A0002F3F41F70895CF93DF932EE12093FA0234
:1047B000E9EEF2E0DC01EC012991CE0121932C918C
:1047C000222321F0D2E0E93FFD07A1F7DF91CF914D
:1047D0000895AF92BF92CF92DF92EF92FF920F9324
:1047E0001F93CF93DF93E82E8B016B01CC0CDD1C64
:1047F00040E050E0B60189E093E00E94580B62E28D
:1048000072E089E093E00E94552CCE2DD0E03EE08E
:10481000E39E70011124C70182549D4F7C01FC016D
:10482000608571854AE050E089E093E00E94BD2CEC
:1048300048E050E0B60189E093E00E94580B6EE238
:1048400072E089E093E00E94552CF7016285738540
:104850008485958520E13EE040E050E00E941A35D5
:10486000BA01A9012AE030E089E093E00E94B02C6F
:104870006BE372E089E093E00E94552CF7016285BA
:10488000738584859585ECE3CE2ED12CE12CF12C1B
:10489000A70196010E941A35CA01B901A701960124
:1048A0000E941A356A3071058105910530F46DE377
:1048B00072E089E093E00E94552C8EE08C9FF0011D
:1048C0008D9FF00D1124E254FD4F62857385848520
:1048D00095854CE3C42ED12CE12CF12CA701960137
:1048E0000E941A35CA01B901A70196010E941A3522
:1048F000AB01BC012AE030E089E093E00E94B02CDB
:10490000C80153E0880F991F5A95E1F767E070E0FE
:104910000E9406358B0189E093E00E94670B20EE30
:104920003FEF201B310B37FF02C020E030E0D6956F
:10493000DC2FCC27D795C7956E01F0E4CF0ED11CA4
:1049400060E070E040E650E0401B510B005E1F4FFE
:10495000E22FE60FF0E06F5F7F4FDA01413451053F
:1049600014F0A0E4B0E0EA17FB07DCF47801EE0EE7
:10497000FF1E5F01EC0FFD1FE55BF64FA491FC01EC
:10498000EE0DFF1DE058FE4FA083F501EC0DFD1D5F
:10499000E55BF64FE491E80EF91ED701BE5FEC939C
:1049A000D7CFDF91CF911F910F91FF90EF90DF90C4
:1049B000CF90BF90AF900895CF93DF93CDB7DEB780
:1049C0002D970FB6F894DEBF0FBECDBF8091FF02CA
:1049D000813031F489E193E00E94840B882349F00F
:1049E0008091FD028130D1F489E193E00E94870B30
:1049F00015C089E193E00E947C0B8DE0EEE2F1E0CE
:104A0000DE01119601900D928A95E1F7BE016F5F6C
:104A10007F4F89E193E00E94D80BE2CF2D960FB62D
:104A2000F894DEBF0FBECDBFDF91CF9108951092F5
:104A30000603109205039093BB028093BA028BED9C
:104A400092E2909308038093070308958F929F92B8
:104A5000AF92BF92CF92DF92EF92FF920F931F938C
:104A6000CF93DF931F92CDB7DEB789E093E00E942A
:104A7000C3066EE189E093E00E94CF0689E093E0EF
:104A80000E94610B0E9407238EEB92E00E94791531
:104A90008CEC92E00E94841A8AED92E00E947922C6
:104AA00010E001E0812F90E0FC01E259FD4F6081B0
:104AB0006623B9F07C0120E1E20EF11CC701698395
:104AC0000E94043790E06981262F332727FD309517
:104AD0008217930721F0C7010E94052300E01F5FA2
:104AE000E1CF002309F459C006EC12E08BE1A82EB7
:104AF000B12CC5010E94043790E0F82EEE24F80195
:104B0000F182E082C50101960E940437E80EF11C93
:104B1000F801F182E082128213821482158245012B
:104B2000F6E08F0E911CC50102965C01F801C2806F
:104B3000D380E480F580FE2CED2CDC2CCC24C282CA
:104B4000D382E482F582C5010E940437C80ED11CCD
:104B5000E11CF11CF801C282D382E482F582FFEFEE
:104B6000AF1ABF0AA814B90409F7025F1F4F2DE25C
:104B7000A216B10409F0BDCF8BE892E20F90DF914D
:104B8000CF911F910F91FF90EF90DF90CF90BF904A
:104B9000AF909F908F900C9417250BE110E060E090
:104BA000C8010E9405230F5F1F4F0D321105B9F791
:104BB000E3CF8F929F92AF92BF92CF92DF92EF920C
:104BC000FF920F931F93CF93DF93CDB7DEB72D974F
:104BD0000FB6F894DEBF0FBECDBF89E093E00E9410
:104BE000710760910503709106036F7777277195C0
:104BF0006195710948E350E089E093E00E94580B09
:104C00006FE372E089E093E00E94552C80910503E8
:104C1000909106038F77992760E870E0681B790B05
:104C200048E350E089E093E00E94580B6FE372E0A4
:104C300089E093E00E94552C809100038130C1F4FB
:104C40008091E8028150833008F082E08093E8028E
:104C50008091B8029091B902805491099093B90261
:104C60008093B80261E672E089E193E00E94D80B7C
:104C70008091FE028130C1F48091E8028F5F63E091
:104C80000E94E6349093E8028091B8029091B902B4
:104C9000805C9F4F9093B9028093B80261E672E006
:104CA00089E193E00E94D80B8091B8029091B902FB
:104CB00097FD0196959587959C012F5F3F4F233077
:104CC000310528F09093B9028093B80204C0109285
:104CD000B9021092B8026091B8027091B902809145
:104CE000E8020E94E9232091B8023091B9022054D1
:104CF00031098091E80290E0029603E010E0B801EB
:104D00000E940635B9010E94E9232091B802309132
:104D1000B902205C3F4F8091E80290E00196B80113
:104D20000E940635B9010E94E92380910503909104
:104D30000603809590958F7399270091BC0210917E
:104D4000BD02080F191F20E031E040E050E060E0B4
:104D500070E0CB010E949330F8016083109105034D
:104D60001170A12EB12C60910503709106036A0D9C
:104D70007B1D6F73772780E090E00E94CD3320E0A9
:104D800030E040E85CE30E9483349B01AC0160E0CA
:104D900070E080E89FE30E94CF326B017C01E091DC
:104DA000BC02F091BD02EA0DFB1D0081602F6F7007
:104DB00070E080E090E00E94CF3320E030E040E0FF
:104DC00051E40E94CF329B01AC010E94D032A70176
:104DD00096010E94343320E030E040E052E40E942B
:104DE000D0320E949C334B015C01602F70E094E054
:104DF000759567959A95E1F7882777FD8095982FA7
:104E00000E94CF3320E030E040E051E40E94CF32F6
:104E10009B01AC010E94D032A70196010E9434335D
:104E200020E030E040E852E40E94D0320E949C33FF
:104E300021E0A40189E093E00E947B071E5F10340B
:104E400008F48FCF8091FC028130D1F48091BC02B4
:104E50009091BD020E94133689E997E20E941725BE
:104E60008DE0EBE3F1E0DE01119601900D928A9561
:104E7000E1F7BE016F5F7F4F89E193E00E94D80B9D
:104E80000E94DC242D960FB6F894DEBF0FBECDBF76
:104E9000DF91CF911F910F91FF90EF90DF90CF9016
:104EA000BF90AF909F908F900895CF93A091E8020C
:104EB000CEE0CA9FD0011124A254BD4F1496ED91AB
:104EC000FC91159709950E94A82240E250E065E206
:104ED00070E089E093E00E94580B6BE472E089E097
:104EE00093E00E94552C80910503909106034F9703
:104EF000A0F08091FC02882381F0E091E802CE9F2F
:104F0000F0011124E254FD4F0680F781E02D099550
:104F10008BE892E2CF910C941725CF91089580EA07
:104F200098E2909308038093070389E193E00C943F
:104F30008A0B1092FA02109204031092030310924B
:104F4000020310920103E091E8028EE0E89FF00175
:104F50001124E254FD4F0190F081E02D099589E084
:104F600093E00E9432070C948F27EF920F931F93C8
:104F7000CF93DF93E12C08E010E020E830E040E040
:104F800050E060E070E089E093E00E94CA08809100
:104F900005039091060380589F4FC0E8D0E0BE0102
:104FA000681B710940E050E089E093E00E94580BD3
:104FB00067E272E089E093E00E94552C6091010362
:104FC000709102034AE050E089E093E00E94BD2C1A
:104FD00069E372E089E093E00E94552C809105031B
:104FE000BE01681B710940E050E089E093E00E9437
:104FF000580B62E272E089E093E00E94552CE09148
:10500000E8026EE0E69FF0011124E254FD4F608556
:1050100071854AE050E089E093E00E94BD2C69E38D
:1050200072E089E093E00E94552C89E093E00E94B1
:10503000670BC0910503C3702C2F30E0409105032E
:1050400050910603BA014138510510F060E870E054
:105050002617370708F04EC0421B530B4F715527D8
:10506000FC01E20FF31F4031510510F560E070E0E4
:1050700010E0DF01A60FB71FA058BF4FDC914D2FE6
:1050800050E0440F452F441F550BDD0FD12BDC930F
:1050900060587F4F6038A3E07A0711F0142FE9CFF2
:1050A000F901E058FF4FE80FF91F2081242B1FC0A2
:1050B00040E050E0D0E0DF01A40FB51FA058BC4F86
:1050C0006C91762F77957727779566956D2B6C93F6
:1050D0004058510940386CEF560711F0D72FEBCFED
:1050E000F901E058FC4FE80FF91F2081272B20839E
:1050F000CC5FA2CF8091FB02813011F40E948F27F8
:10510000DF91CF911F910F91EF900C94DC241092BE
:1051100006031092050340E250E06EE270E089E081
:1051200093E00E94580B65E572E089E093E00E94ED
:10513000552C85EB97E2909308038093070308951D
:10514000CF938091FB02813019F4CF910C94872882
:10515000A091E802CEE0CA9FD0011124A254BD4F15
:105160001296ED91FC9113970995E091E802CE9F7C
:10517000F0011124E254FD4F0480F581E02D0995E2
:10518000CF910C94A822DF92EF92FF920F931F937E
:10519000CF93DF93CDB7DEB72D970FB6F894DEBF70
:1051A0000FBECDBF20910103309102038091E80230
:1051B0001EE0189FD0011124A254BD4F18964D91A6
:1051C0005C9119974217530700F546E0849FC00190
:1051D0001124632F4B960E9405238091E80256E02C
:1051E000859FC0011124609101034C960E94052304
:1051F000E091E8021E9FF0011124E254FD4F8091DE
:1052000001039091020391878087E091E8028EE08C
:10521000E89FF0011124E254FD4F80910303909127
:1052200004036EE170E00E94F23482859385A485C8
:10523000B585860F971FA11DB11D82879387A4870F
:10524000B58788E1E82EF12C00E010E09EE0D92E31
:105250002091E802D29EF0011124E254FD4F6285B4
:105260007385848595850E2C04C0969587957795D2
:1052700067950A94D2F7A801E6E02E9F400D511DD4
:105280001124CA014D960E9405230F5F1F4F28E08D
:10529000E21AF10804301105D9F6109206031092B3
:1052A000050385E597E290930803809307038DE05B
:1052B000E8E4F1E0DE01119601900D928A95E1F7A4
:1052C000BE016F5F7F4F89E193E00E94D80B2D965E
:1052D0000FB6F894DEBF0FBECDBFDF91CF911F9107
:1052E0000F91FF90EF90DF90089589E093E00E9486
:1052F000D806882309F480C060E289E093E00E9428
:10530000690B882331F0809100038F5F8093000345
:1053100002C01092000360E189E093E00E94690BF3
:10532000882331F08091FF028F5F8093FF0202C0DB
:105330001092FF0264E089E093E00E94690B8823E9
:1053400031F08091FE028F5F8093FE0202C01092C6
:10535000FE0260E489E093E00E94690B882331F04B
:105360008091FD028F5F8093FD0202C01092FD02CA
:1053700062E089E093E00E94690B882331F080911C
:10538000FB028F5F8093FB0202C01092FB0261E080
:1053900089E093E00E94690B882331F08091FC0240
:1053A0008F5F8093FC0202C01092FC02E091070321
:1053B000F0910803099580910503909106030196E9
:1053C000909306038093050389E193E00E94840B88
:1053D00081110EC040E050E068E670E089E093E0A3
:1053E0000E94580B6CE572E089E093E00E94552C16
:1053F00089E093E00C94610B089589E093E00E94AA
:1054000093061092C7021092C6021092C802109220
:10541000C9021092CA021092CB021092D5021092C9
:10542000D4021092D6021092D7021092D802109293
:10543000D9021092E3021092E2021092E40210925A
:10544000E5021092E6021092E7020895CF93CFB7DB
:10545000F89480912E07811127C0E8E1FBE0849148
:10546000EAEFFAE09491E82FF0E0EE0FFF1FED5C19
:10547000F44FA591B4918C91892321F461E081E1ED
:105480000E94C92B61E081E10E94902B8CB5806164
:105490008CBD8CB580648CBD61E08FE00E94902B48
:1054A00061E080E10E94902B80912E078F5F8093B6
:1054B0002E07CFBFCF9108951F920F920FB60F9274
:1054C00011242F933F938F939F93AF93BF9380911A
:1054D000300790913107A0913207B0913307309196
:1054E0002F0723E0230F2D3720F40196A11DB11DB6
:1054F00005C026E8230F0296A11DB11D20932F079A
:105500008093300790933107A0933207B09333070D
:105510008091340790913507A0913607B0913707F5
:105520000196A11DB11D8093340790933507A09378
:105530003607B0933707BF91AF919F918F913F91FD
:105540002F910F900FBE0F901F9018952FB7F894C2
:105550006091300770913107809132079091330745
:105560002FBF08953FB7F894809134079091350785
:10557000A0913607B091370726B5A89B05C02F3FED
:1055800019F00196A11DB11D3FBF6627782F892F05
:105590009A2F620F711D811D911D42E0660F771FCA
:1055A000881F991F4A95D1F70895CF92DF92EF9205
:1055B000FF92CF93DF936B017C010E94B22AEB0133
:1055C000C114D104E104F10489F00E94AF300E94BB
:1055D000B22A6C1B7D0B683E734090F381E0C81AC1
:1055E000D108E108F108C851DC4FEACFDF91CF9133
:1055F000FF90EF90DF90CF900895789484B582600B
:1056000084BD84B5816084BD85B5826085BD85B566
:10561000816085BDEEE6F0E0808181608083E1E815
:10562000F0E010828081826080838081816080834D
:10563000E0E8F0E0808181608083E1E9F0E0808152
:1056400082608083808181608083E0E9F0E08081F6
:1056500081608083E1ECF0E08081846080838081E0
:1056600082608083808181608083E3ECF0E08081D0
:1056700081608083E0ECF0E0808182608083E2ECF6
:10568000F0E0808181608083EAE7F0E080818460DF
:10569000808380818260808380818160808380813B
:1056A00080688083089590E0FC013197EF30F10528
:1056B000B0F5EA5AFF4F0C945B35809180008F77EC
:1056C00003C0809180008F7D809380000895809139
:1056D0008000877FF9CF84B58F7702C084B58F7D36
:1056E00084BD0895809190008F7707C080919000CD
:1056F0008F7D03C080919000877F809390000895F4
:105700008091C0008F7703C08091C0008F7D80930F
:10571000C00008958091C200877F8093C2000895E1
:10572000CF93DF9390E0FC01E751F54F2491FC010A
:10573000E95FF44F8491882349F190E0880F991F25
:10574000FC01ED5CF44FA591B4918B5D944FFC018D
:10575000C591D4919FB7611108C0F8948C912095A0
:1057600082238C93888182230AC0623051F4F8949A
:105770008C91322F309583238C938881822B888360
:1057800004C0F8948C91822B8C939FBFDF91CF91B2
:1057900008950F931F93CF93DF931F92CDB7DEB77A
:1057A000282F30E0F901E553F54F8491F901E751D5
:1057B000F54F1491F901E95FF44F04910023C9F00A
:1057C000882321F069830E94532B6981E02FF0E048
:1057D000EE0FFF1FEB5DF44FA591B4919FB7F894C6
:1057E0008C91611103C01095812301C0812B8C9392
:1057F0009FBF0F90DF91CF911F910F910895089552
:105800000E94FD2A0E94FF2B88E397E00E94493006
:105810000E942625C0E0D0E00E9475292097E1F380
:105820000E940000F9CF0C947B350C941336CF9274
:10583000DF92EF92FF920F931F93CF93DF936C0150
:105840007A01EB01E60EF71E00E010E0CE15DF0551
:1058500061F06991D601ED91FC910190F081E02D0C
:10586000C6010995080F191FF1CFC801DF91CF912B
:105870001F910F91FF90EF90DF90CF9008956115E9
:10588000710581F0DB010D900020E9F7AD01415079
:105890005109461B570BDC01ED91FC910280F3810D
:1058A000E02D099480E090E008950C943F2C8F92B5
:1058B0009F92AF92BF92CF92DF92EF92FF920F939F
:1058C0001F93CF93DF93CDB7DEB7A1970FB6F894B0
:1058D000DEBF0FBECDBF7C01C42EE52FCB01D22E83
:1058E00019A221E02D1510F02AE0D22E8E010F5DB5
:1058F0001F4F8D2C912CA12CB12C6C2D7E2FA5012E
:1059000094010E941A358C2DD29E801911240150C9
:1059100011098A3014F4805D01C0895CF80180832C
:10592000211531054105510521F0C22EE32FCA0191
:10593000E4CFB801C7010E943F2CA1960FB6F8949E
:10594000DEBF0FBECDBFDF91CF911F910F91FF90B2
:10595000EF90DF90CF90BF90AF909F908F90089581
:105960002115310541F4DC01ED91FC910190F081AC
:10597000E02D642F09940C94572C9A01AB0160E040
:1059800070E00C94B02C40913C0750913D07209161
:105990003A0730913B0742175307B4F49091E8005F
:1059A0009570E1F39091E80092FD19C08093F100A9
:1059B00080913C0790913D0701968F739927892B21
:1059C00019F48EEF8093E80080913C0790913D0799
:1059D000019690933D0780933C0781E0089580E015
:1059E0000895CF92DF92FF920F931F93CF93DF938F
:1059F0001F92CDB7DEB7082F162F862F880F8E5F28
:105A000099830E94C32C83E00E94C32CF02EC02EE9
:105A10009981D92E8C2D8F19811778F4F6018491F4
:105A20000E94C32C082F80E00E94C32C8023FFEF2C
:105A3000CF1ADF0A8111EECF01C081E00F90DF9114
:105A4000CF911F910F91FF90DF90CF9008956150FB
:105A500030F02091F100FC0120830196F8CF2898C6
:105A600084E680933F0708952FB7FC012083F894C4
:105A700067706093E9000895CF93DF931F92CDB7CD
:105A8000DEB7682FCE0101960E94342D8091F2007E
:105A900099819FBF0F90DF91CF910895FF920F934F
:105AA0001F93CF93DF9300D0CDB7DEB7F62E8A01D8
:105AB00090913E07992311F057FF03C08FEF9FEF9E
:105AC0002BC0682FCE0101967A830E94342D8091DD
:105AD000F20090E0A8017A81801791070CF4AC01E4
:105AE000EF2DF72FF40E84E6FE1639F028988093F8
:105AF0003F079091F1009193F7CF4115510521F0A7
:105B00008091F200882321F089818FBFCA0104C0EF
:105B10008BE68093E800F8CF0F900F90DF91CF9144
:105B20001F910F91FF900895CF93DF931F92CDB7F0
:105B3000DEB741E050E0BE016F5F7F4F0E944E2D07
:105B4000019719F4898190E002C08FEF9FEF0F90C9
:105B5000DF91CF910895CF93DF931F92CDB7DEB73A
:105B6000682FCE0101960E94342D9091E800892F74
:105B7000807295FF04C09091F20080E4891B9981A6
:105B80009FBF0F90DF91CF9108956F927F928F9278
:105B90009F92AF92BF92CF92DF92EF92FF920F93BC
:105BA0001F93CF93DF931F92CDB7DEB7782E7B0183
:105BB000C42EB52E80913E07882369F0042F152F3F
:105BC0008AEFD82E872D8072982E9AE3A92E872DE2
:105BD0008074882E11C08FEF9FEF57C0872D0E94D1
:105BE000AB2D682E81110CC0DA94A9F361E070E04E
:105BF00080E090E00E94D52A0115110579F73BC09D
:105C0000282F30E0021713070CF4602E672DCE0109
:105C100001960E94342D8091E80085FF29C0262D31
:105C200030E0021B130B992039F06A948FEF68164D
:105C3000B1F01092F100F9CFF701862D77FE07C081
:105C4000815058F094919093F1003196F9CF8150A2
:105C500020F091919093F100FACFE20EF31E809123
:105C6000E80085FF0FC00115110511F481100AC06D
:105C700089818FBFC1CF5D9884E6809340078C2DCA
:105C80009B2D03C0A092E800F3CF0F90DF91CF913E
:105C90001F910F91FF90EF90DF90CF90BF90AF904A
:105CA0009F908F907F906F9008951092E9001092CE
:105CB0003D0710923C0790933B0780933A07089565
:105CC000CF92DF92FF920F931F93CF93DF9300D079
:105CD000CDB7DEB7F82E8A016B0101151105B1F0C1
:105CE000F601F7FE02C0849101C0808149835A8386
:105CF0000E94C32C01501109FFEFCF1ADF0A49811E
:105D00005A818111EACF8FEF9FEF01C0CA010F9036
:105D10000F90DF91CF911F910F91FF90DF90CF9067
:105D200008951F93CF93DF931F92CDB7DEB7162F41
:105D30002091E80022FFFCCF612F79830E94272D5C
:105D40008BEF8093E800812F7981972F0F90DF915F
